{
  "address": "0x02b14d428CDD937CCffBB80494b8B6f6Fb020BCD",
  "abi": [
    {
      "inputs": [],
      "stateMutability": "nonpayable",
      "type": "constructor"
    },
    {
      "anonymous": false,
      "inputs": [
        {
          "indexed": true,
          "internalType": "bytes32",
          "name": "id",
          "type": "bytes32"
        }
      ],
      "name": "ChainlinkCancelled",
      "type": "event"
    },
    {
      "anonymous": false,
      "inputs": [
        {
          "indexed": true,
          "internalType": "bytes32",
          "name": "id",
          "type": "bytes32"
        }
      ],
      "name": "ChainlinkFulfilled",
      "type": "event"
    },
    {
      "anonymous": false,
      "inputs": [
        {
          "indexed": true,
          "internalType": "bytes32",
          "name": "id",
          "type": "bytes32"
        }
      ],
      "name": "ChainlinkRequested",
      "type": "event"
    },
    {
      "anonymous": false,
      "inputs": [
        {
          "indexed": true,
          "internalType": "address",
          "name": "from",
          "type": "address"
        },
        {
          "indexed": true,
          "internalType": "address",
          "name": "to",
          "type": "address"
        }
      ],
      "name": "OwnershipTransferRequested",
      "type": "event"
    },
    {
      "anonymous": false,
      "inputs": [
        {
          "indexed": true,
          "internalType": "address",
          "name": "from",
          "type": "address"
        },
        {
          "indexed": true,
          "internalType": "address",
          "name": "to",
          "type": "address"
        }
      ],
      "name": "OwnershipTransferred",
      "type": "event"
    },
    {
      "anonymous": false,
      "inputs": [
        {
          "indexed": true,
          "internalType": "bytes32",
          "name": "requestId",
          "type": "bytes32"
        },
        {
          "indexed": false,
          "internalType": "uint256",
          "name": "value",
          "type": "uint256"
        }
      ],
      "name": "RequestPrice",
      "type": "event"
    },
    {
      "inputs": [],
      "name": "acceptOwnership",
      "outputs": [],
      "stateMutability": "nonpayable",
      "type": "function"
    },
    {
      "inputs": [
        {
          "internalType": "bytes32",
          "name": "_requestId",
          "type": "bytes32"
        },
        {
          "internalType": "uint256",
          "name": "_value",
          "type": "uint256"
        }
      ],
      "name": "fulfill",
      "outputs": [],
      "stateMutability": "nonpayable",
      "type": "function"
    },
    {
      "inputs": [],
      "name": "owner",
      "outputs": [
        {
          "internalType": "address",
          "name": "",
          "type": "address"
        }
      ],
      "stateMutability": "view",
      "type": "function"
    },
    {
      "inputs": [],
      "name": "requestPrice",
      "outputs": [
        {
          "internalType": "bytes32",
          "name": "requestId",
          "type": "bytes32"
        }
      ],
      "stateMutability": "nonpayable",
      "type": "function"
    },
    {
      "inputs": [
        {
          "internalType": "address",
          "name": "to",
          "type": "address"
        }
      ],
      "name": "transferOwnership",
      "outputs": [],
      "stateMutability": "nonpayable",
      "type": "function"
    },
    {
      "inputs": [],
      "name": "value",
      "outputs": [
        {
          "internalType": "uint256",
          "name": "",
          "type": "uint256"
        }
      ],
      "stateMutability": "view",
      "type": "function"
    }
  ],
  "transactionHash": "0x7216b55ed5a5583a4baa48cc5e221146a3b61db6e5811f3950d8fc809db5896e",
  "args": [],
  "numDeployments": 1,
  "solcInputHash": "62705b0b18509607ca6b3e396cdeb187",
  "bytecode": "0x608060405260016004553480156200001657600080fd5b5033806000816200006e5760405162461bcd60e51b815260206004820152601860248201527f43616e6e6f7420736574206f776e657220746f207a65726f000000000000000060448201526064015b60405180910390fd5b600680546001600160a01b0319166001600160a01b0384811691909117909155811615620000a157620000a1816200013f565b505050620000c973779877a7b0d9e8603169ddbd7836e478b4624789620001eb60201b60201c565b600380546001600160a01b031916736090149792daaee9d1d568c9f9a6f6b46aa29efd1790557f6361393833363663633733313439353662386330313263373266303561656562600955600a6200012a670de0b6b3a764000060016200020d565b62000136919062000239565b600a556200025c565b336001600160a01b03821603620001995760405162461bcd60e51b815260206004820152601760248201527f43616e6e6f74207472616e7366657220746f2073656c66000000000000000000604482015260640162000065565b600780546001600160a01b0319166001600160a01b03838116918217909255600654604051919216907fed8889f560326eb138920d842192f0eb3dd22b4f139c87a2c57538e05bae127890600090a350565b600280546001600160a01b0319166001600160a01b0392909216919091179055565b80820281158282048414176200023357634e487b7160e01b600052601160045260246000fd5b92915050565b6000826200025757634e487b7160e01b600052601260045260246000fd5b500490565b611271806200026c6000396000f3fe608060405234801561001057600080fd5b50600436106100725760003560e01c806379ba50971161005057806379ba5097146100b05780638da5cb5b146100b8578063f2fde38b146100e057600080fd5b80631604f9ea146100775780633fa4f245146100925780634357855e1461009b575b600080fd5b61007f6100f3565b6040519081526020015b60405180910390f35b61007f60085481565b6100ae6100a9366004610e7a565b6101f7565b005b6100ae61034d565b60065460405173ffffffffffffffffffffffffffffffffffffffff9091168152602001610089565b6100ae6100ee366004610e9c565b61044e565b60008061010a60095430634357855e60e01b610462565b90506101666040518060400160405280600381526020017f67657400000000000000000000000000000000000000000000000000000000008152506040518060800160405280604b81526020016111f1604b91398391906104f3565b6101e56040518060400160405280600481526020017f70617468000000000000000000000000000000000000000000000000000000008152506040518060400160405280600881526020017f6574682c57455448000000000000000000000000000000000000000000000000815250836104f39092919063ffffffff16565b6101f181600a54610516565b91505090565b600082815260056020526040902054829073ffffffffffffffffffffffffffffffffffffffff1633146102b1576040517f08c379a000000000000000000000000000000000000000000000000000000000815260206004820152602860248201527f536f75726365206d75737420626520746865206f7261636c65206f662074686560448201527f207265717565737400000000000000000000000000000000000000000000000060648201526084015b60405180910390fd5b60008181526005602052604080822080547fffffffffffffffffffffffff00000000000000000000000000000000000000001690555182917f7cc135e0cebb02c3480ae5d74d377283180a2601f8f644edf7987b009316c63a91a2827f9a8cbabab41362fe534ea197eab0af0bfb16b084f9213b1f15ef6337d97dec158360405161033e91815260200190565b60405180910390a25060085550565b60075473ffffffffffffffffffffffffffffffffffffffff1633146103ce576040517f08c379a000000000000000000000000000000000000000000000000000000000815260206004820152601660248201527f4d7573742062652070726f706f736564206f776e65720000000000000000000060448201526064016102a8565b600680547fffffffffffffffffffffffff00000000000000000000000000000000000000008082163390811790935560078054909116905560405173ffffffffffffffffffffffffffffffffffffffff909116919082907f8be0079c531659141344cd1fd0a4f28419497f9722a3daafe3b4186f6b6457e090600090a350565b610456610546565b61045f816105c9565b50565b6104a06040805160a0810182526000808252602080830182905282840182905260608084018390528451808601909552845283015290608082015290565b6104de6040805160a0810182526000808252602080830182905282840182905260608084018390528451808601909552845283015290608082015290565b6104ea818686866106bf565b95945050505050565b60808301516105029083610760565b60808301516105119082610760565b505050565b60035460009061053d9073ffffffffffffffffffffffffffffffffffffffff168484610777565b90505b92915050565b60065473ffffffffffffffffffffffffffffffffffffffff1633146105c7576040517f08c379a000000000000000000000000000000000000000000000000000000000815260206004820152601660248201527f4f6e6c792063616c6c61626c65206279206f776e65720000000000000000000060448201526064016102a8565b565b3373ffffffffffffffffffffffffffffffffffffffff821603610648576040517f08c379a000000000000000000000000000000000000000000000000000000000815260206004820152601760248201527f43616e6e6f74207472616e7366657220746f2073656c6600000000000000000060448201526064016102a8565b600780547fffffffffffffffffffffffff00000000000000000000000000000000000000001673ffffffffffffffffffffffffffffffffffffffff838116918217909255600654604051919216907fed8889f560326eb138920d842192f0eb3dd22b4f139c87a2c57538e05bae127890600090a350565b6106fd6040805160a0810182526000808252602080830182905282840182905260608084018390528451808601909552845283015290608082015290565b61070d856080015161010061086e565b505082845273ffffffffffffffffffffffffffffffffffffffff821660208501527fffffffff0000000000000000000000000000000000000000000000000000000081166040850152835b949350505050565b61076d82600383516108d3565b61051182826109e8565b600454600090610788816001610f08565b600455835160408086015160808701515191516000937f4042994600000000000000000000000000000000000000000000000000000000936107d99386938493923092918a91600191602401610f7f565b604080517fffffffffffffffffffffffffffffffffffffffffffffffffffffffffffffffe08184030181529190526020810180517bffffffffffffffffffffffffffffffffffffffffffffffffffffffff167fffffffff0000000000000000000000000000000000000000000000000000000090931692909217909152905061086486838684610a0f565b9695505050505050565b60408051808201909152606081526000602082015261088e602083611008565b156108b65761089e602083611008565b6108a9906020611043565b6108b39083610f08565b91505b506020828101829052604080518085526000815290920101905290565b60178167ffffffffffffffff16116108fe576108f88360e0600585901b168317610c1d565b50505050565b60ff8167ffffffffffffffff161161093c57610925836018611fe0600586901b1617610c1d565b506108f88367ffffffffffffffff83166001610c42565b61ffff8167ffffffffffffffff161161097b57610964836019611fe0600586901b1617610c1d565b506108f88367ffffffffffffffff83166002610c42565b63ffffffff8167ffffffffffffffff16116109bc576109a583601a611fe0600586901b1617610c1d565b506108f88367ffffffffffffffff83166004610c42565b6109d183601b611fe0600586901b1617610c1d565b506108f88367ffffffffffffffff83166008610c42565b60408051808201909152606081526000602082015261053d83846000015151848551610c68565b6040517fffffffffffffffffffffffffffffffffffffffff0000000000000000000000003060601b16602082015260348101849052600090605401604080518083037fffffffffffffffffffffffffffffffffffffffffffffffffffffffffffffffe001815282825280516020918201206000818152600590925291812080547fffffffffffffffffffffffff00000000000000000000000000000000000000001673ffffffffffffffffffffffffffffffffffffffff8a1617905590925082917fb5e6e01e79f91267dc17b4e6314d5d4d03593d2ceee0fbb452b750bd70ea5af99190a26002546040517f4000aea000000000000000000000000000000000000000000000000000000000815273ffffffffffffffffffffffffffffffffffffffff90911690634000aea090610b4e90889087908790600401611056565b6020604051808303816000875af1158015610b6d573d6000803e3d6000fd5b505050506040513d601f19601f82011682018060405250810190610b91919061108b565b610758576040517f08c379a000000000000000000000000000000000000000000000000000000000815260206004820152602360248201527f756e61626c6520746f207472616e73666572416e6443616c6c20746f206f726160448201527f636c65000000000000000000000000000000000000000000000000000000000060648201526084016102a8565b60408051808201909152606081526000602082015261053d8384600001515184610d70565b604080518082019091526060815260006020820152610758848560000151518585610dcb565b6040805180820190915260608152600060208201528251821115610c8b57600080fd5b6020850151610c9a8386610f08565b1115610ccd57610ccd85610cbd87602001518786610cb89190610f08565b610e4c565b610cc89060026110ad565b610e63565b600080865180518760208301019350808887011115610cec5787860182525b505050602084015b60208410610d2c5780518252610d0b602083610f08565b9150610d18602082610f08565b9050610d25602085611043565b9350610cf4565b5181517fffffffffffffffffffffffffffffffffffffffffffffffffffffffffffffffff60208690036101000a019081169019919091161790525083949350505050565b60408051808201909152606081526000602082015283602001518310610da557610da58485602001516002610cc891906110ad565b8351805160208583010184815350808503610dc1576001810182525b5093949350505050565b6040805180820190915260608152600060208201526020850151610def8584610f08565b1115610e0357610e0385610cbd8685610f08565b60006001610e13846101006111e4565b610e1d9190611043565b9050855183868201018583198251161781525080518487011115610e415783860181525b509495945050505050565b600081831115610e5d575081610540565b50919050565b8151610e6f838361086e565b506108f883826109e8565b60008060408385031215610e8d57600080fd5b50508035926020909101359150565b600060208284031215610eae57600080fd5b813573ffffffffffffffffffffffffffffffffffffffff81168114610ed257600080fd5b9392505050565b7f4e487b7100000000000000000000000000000000000000000000000000000000600052601160045260246000fd5b8082018082111561054057610540610ed9565b6000815180845260005b81811015610f4157602081850181015186830182015201610f25565b5060006020828601015260207fffffffffffffffffffffffffffffffffffffffffffffffffffffffffffffffe0601f83011685010191505092915050565b600061010073ffffffffffffffffffffffffffffffffffffffff808c1684528a60208501528960408501528089166060850152507fffffffff00000000000000000000000000000000000000000000000000000000871660808401528560a08401528460c08401528060e0840152610ff981840185610f1b565b9b9a5050505050505050505050565b60008261103e577f4e487b7100000000000000000000000000000000000000000000000000000000600052601260045260246000fd5b500690565b8181038181111561054057610540610ed9565b73ffffffffffffffffffffffffffffffffffffffff841681528260208201526060604082015260006104ea6060830184610f1b565b60006020828403121561109d57600080fd5b81518015158114610ed257600080fd5b808202811582820484141761054057610540610ed9565b600181815b8085111561111d57817fffffffffffffffffffffffffffffffffffffffffffffffffffffffffffffffff0482111561110357611103610ed9565b8085161561111057918102915b93841c93908002906110c9565b509250929050565b60008261113457506001610540565b8161114157506000610540565b816001811461115757600281146111615761117d565b6001915050610540565b60ff84111561117257611172610ed9565b50506001821b610540565b5060208310610133831016604e8410600b84101617156111a0575081810a610540565b6111aa83836110c4565b807fffffffffffffffffffffffffffffffffffffffffffffffffffffffffffffffff048211156111dc576111dc610ed9565b029392505050565b600061053d838361112556fe68747470733a2f2f6170692e686172766573742e66696e616e63652f7661756c74733f6b65793d34316539306365642d643535392d343433332d623339302d616634323466646337366436a2646970667358221220631e30cc1b3f8f533c024713499d3f121dad555fb5bb213562d0e95e9512ba9d64736f6c63430008130033",
  "devdoc": {
    "kind": "dev",
    "methods": {},
    "version": 1
  },
  "userdoc": {
    "kind": "user",
    "methods": {
      "acceptOwnership()": {
        "notice": "Allows an ownership transfer to be completed by the recipient."
      },
      "owner()": {
        "notice": "Get the current owner"
      },
      "transferOwnership(address)": {
        "notice": "Allows an owner to begin transferring ownership to a new address, pending."
      }
    },
    "version": 1
  },
  "storageLayout": {
    "storage": [
      {
        "astId": 319,
        "contract": "contracts/consumers/APIConsumer.sol:APIConsumer",
        "label": "s_ens",
        "offset": 0,
        "slot": "0",
        "type": "t_contract(ENSInterface)1156"
      },
      {
        "astId": 321,
        "contract": "contracts/consumers/APIConsumer.sol:APIConsumer",
        "label": "s_ensNode",
        "offset": 0,
        "slot": "1",
        "type": "t_bytes32"
      },
      {
        "astId": 324,
        "contract": "contracts/consumers/APIConsumer.sol:APIConsumer",
        "label": "s_link",
        "offset": 0,
        "slot": "2",
        "type": "t_contract(LinkTokenInterface)1251"
      },
      {
        "astId": 327,
        "contract": "contracts/consumers/APIConsumer.sol:APIConsumer",
        "label": "s_oracle",
        "offset": 0,
        "slot": "3",
        "type": "t_contract(OperatorInterface)1331"
      },
      {
        "astId": 330,
        "contract": "contracts/consumers/APIConsumer.sol:APIConsumer",
        "label": "s_requestCount",
        "offset": 0,
        "slot": "4",
        "type": "t_uint256"
      },
      {
        "astId": 334,
        "contract": "contracts/consumers/APIConsumer.sol:APIConsumer",
        "label": "s_pendingRequests",
        "offset": 0,
        "slot": "5",
        "type": "t_mapping(t_bytes32,t_address)"
      },
      {
        "astId": 889,
        "contract": "contracts/consumers/APIConsumer.sol:APIConsumer",
        "label": "s_owner",
        "offset": 0,
        "slot": "6",
        "type": "t_address"
      },
      {
        "astId": 891,
        "contract": "contracts/consumers/APIConsumer.sol:APIConsumer",
        "label": "s_pendingOwner",
        "offset": 0,
        "slot": "7",
        "type": "t_address"
      },
      {
        "astId": 4399,
        "contract": "contracts/consumers/APIConsumer.sol:APIConsumer",
        "label": "value",
        "offset": 0,
        "slot": "8",
        "type": "t_uint256"
      },
      {
        "astId": 4401,
        "contract": "contracts/consumers/APIConsumer.sol:APIConsumer",
        "label": "jobId",
        "offset": 0,
        "slot": "9",
        "type": "t_bytes32"
      },
      {
        "astId": 4403,
        "contract": "contracts/consumers/APIConsumer.sol:APIConsumer",
        "label": "fee",
        "offset": 0,
        "slot": "10",
        "type": "t_uint256"
      }
    ],
    "types": {
      "t_address": {
        "encoding": "inplace",
        "label": "address",
        "numberOfBytes": "20"
      },
      "t_bytes32": {
        "encoding": "inplace",
        "label": "bytes32",
        "numberOfBytes": "32"
      },
      "t_contract(ENSInterface)1156": {
        "encoding": "inplace",
        "label": "contract ENSInterface",
        "numberOfBytes": "20"
      },
      "t_contract(LinkTokenInterface)1251": {
        "encoding": "inplace",
        "label": "contract LinkTokenInterface",
        "numberOfBytes": "20"
      },
      "t_contract(OperatorInterface)1331": {
        "encoding": "inplace",
        "label": "contract OperatorInterface",
        "numberOfBytes": "20"
      },
      "t_mapping(t_bytes32,t_address)": {
        "encoding": "mapping",
        "key": "t_bytes32",
        "label": "mapping(bytes32 => address)",
        "numberOfBytes": "32",
        "value": "t_address"
      },
      "t_uint256": {
        "encoding": "inplace",
        "label": "uint256",
        "numberOfBytes": "32"
      }
    }
  }
}