{
  "address": "0x3A6ec59e489f08D637d34513f2D6846A78d3e215",
  "abi": [
    {
      "inputs": [
        {
          "internalType": "contract IStrategy",
          "name": "strategy_",
          "type": "address"
        }
      ],
      "stateMutability": "nonpayable",
      "type": "constructor"
    },
    {
      "anonymous": false,
      "inputs": [
        {
          "indexed": true,
          "internalType": "address",
          "name": "owner",
          "type": "address"
        },
        {
          "indexed": true,
          "internalType": "address",
          "name": "spender",
          "type": "address"
        },
        {
          "indexed": false,
          "internalType": "uint256",
          "name": "value",
          "type": "uint256"
        }
      ],
      "name": "Approval",
      "type": "event"
    },
    {
      "anonymous": false,
      "inputs": [
        {
          "indexed": true,
          "internalType": "address",
          "name": "sender",
          "type": "address"
        },
        {
          "indexed": false,
          "internalType": "uint256",
          "name": "amountDeposited",
          "type": "uint256"
        },
        {
          "indexed": false,
          "internalType": "uint256",
          "name": "yETH",
          "type": "uint256"
        }
      ],
      "name": "Deposited",
      "type": "event"
    },
    {
      "anonymous": false,
      "inputs": [
        {
          "indexed": true,
          "internalType": "address",
          "name": "sender",
          "type": "address"
        },
        {
          "indexed": false,
          "internalType": "uint256",
          "name": "amountInvested",
          "type": "uint256"
        }
      ],
      "name": "Invested",
      "type": "event"
    },
    {
      "anonymous": false,
      "inputs": [
        {
          "indexed": true,
          "internalType": "address",
          "name": "previousOwner",
          "type": "address"
        },
        {
          "indexed": true,
          "internalType": "address",
          "name": "newOwner",
          "type": "address"
        }
      ],
      "name": "OwnershipTransferred",
      "type": "event"
    },
    {
      "anonymous": false,
      "inputs": [
        {
          "indexed": true,
          "internalType": "address",
          "name": "sender",
          "type": "address"
        },
        {
          "indexed": false,
          "internalType": "uint256",
          "name": "amountRebalanced",
          "type": "uint256"
        }
      ],
      "name": "Rebalanced",
      "type": "event"
    },
    {
      "anonymous": false,
      "inputs": [
        {
          "indexed": true,
          "internalType": "address",
          "name": "sender",
          "type": "address"
        },
        {
          "indexed": false,
          "internalType": "contract IStrategy",
          "name": "former",
          "type": "address"
        },
        {
          "indexed": false,
          "internalType": "contract IStrategy",
          "name": "latter",
          "type": "address"
        }
      ],
      "name": "StrategyChanged",
      "type": "event"
    },
    {
      "anonymous": false,
      "inputs": [
        {
          "indexed": true,
          "internalType": "address",
          "name": "from",
          "type": "address"
        },
        {
          "indexed": true,
          "internalType": "address",
          "name": "to",
          "type": "address"
        },
        {
          "indexed": false,
          "internalType": "uint256",
          "name": "value",
          "type": "uint256"
        }
      ],
      "name": "Transfer",
      "type": "event"
    },
    {
      "anonymous": false,
      "inputs": [
        {
          "indexed": true,
          "internalType": "address",
          "name": "sender",
          "type": "address"
        },
        {
          "indexed": false,
          "internalType": "uint256",
          "name": "amountWithdrawn",
          "type": "uint256"
        },
        {
          "indexed": false,
          "internalType": "uint256",
          "name": "yETH",
          "type": "uint256"
        }
      ],
      "name": "Withdrawn",
      "type": "event"
    },
    {
      "inputs": [
        {
          "internalType": "address",
          "name": "owner",
          "type": "address"
        },
        {
          "internalType": "address",
          "name": "spender",
          "type": "address"
        }
      ],
      "name": "allowance",
      "outputs": [
        {
          "internalType": "uint256",
          "name": "",
          "type": "uint256"
        }
      ],
      "stateMutability": "view",
      "type": "function"
    },
    {
      "inputs": [
        {
          "internalType": "address",
          "name": "spender",
          "type": "address"
        },
        {
          "internalType": "uint256",
          "name": "amount",
          "type": "uint256"
        }
      ],
      "name": "approve",
      "outputs": [
        {
          "internalType": "bool",
          "name": "",
          "type": "bool"
        }
      ],
      "stateMutability": "nonpayable",
      "type": "function"
    },
    {
      "inputs": [
        {
          "internalType": "address",
          "name": "account",
          "type": "address"
        }
      ],
      "name": "balanceOf",
      "outputs": [
        {
          "internalType": "uint256",
          "name": "",
          "type": "uint256"
        }
      ],
      "stateMutability": "view",
      "type": "function"
    },
    {
      "inputs": [
        {
          "internalType": "contract IStrategy",
          "name": "strategy_",
          "type": "address"
        }
      ],
      "name": "changeStrategy",
      "outputs": [],
      "stateMutability": "nonpayable",
      "type": "function"
    },
    {
      "inputs": [],
      "name": "decimals",
      "outputs": [
        {
          "internalType": "uint8",
          "name": "",
          "type": "uint8"
        }
      ],
      "stateMutability": "view",
      "type": "function"
    },
    {
      "inputs": [
        {
          "internalType": "address",
          "name": "spender",
          "type": "address"
        },
        {
          "internalType": "uint256",
          "name": "subtractedValue",
          "type": "uint256"
        }
      ],
      "name": "decreaseAllowance",
      "outputs": [
        {
          "internalType": "bool",
          "name": "",
          "type": "bool"
        }
      ],
      "stateMutability": "nonpayable",
      "type": "function"
    },
    {
      "inputs": [],
      "name": "deposit",
      "outputs": [],
      "stateMutability": "payable",
      "type": "function"
    },
    {
      "inputs": [
        {
          "internalType": "address",
          "name": "spender",
          "type": "address"
        },
        {
          "internalType": "uint256",
          "name": "addedValue",
          "type": "uint256"
        }
      ],
      "name": "increaseAllowance",
      "outputs": [
        {
          "internalType": "bool",
          "name": "",
          "type": "bool"
        }
      ],
      "stateMutability": "nonpayable",
      "type": "function"
    },
    {
      "inputs": [],
      "name": "invest",
      "outputs": [],
      "stateMutability": "nonpayable",
      "type": "function"
    },
    {
      "inputs": [],
      "name": "name",
      "outputs": [
        {
          "internalType": "string",
          "name": "",
          "type": "string"
        }
      ],
      "stateMutability": "view",
      "type": "function"
    },
    {
      "inputs": [],
      "name": "owner",
      "outputs": [
        {
          "internalType": "address",
          "name": "",
          "type": "address"
        }
      ],
      "stateMutability": "view",
      "type": "function"
    },
    {
      "inputs": [],
      "name": "rebalance",
      "outputs": [],
      "stateMutability": "nonpayable",
      "type": "function"
    },
    {
      "inputs": [],
      "name": "renounceOwnership",
      "outputs": [],
      "stateMutability": "nonpayable",
      "type": "function"
    },
    {
      "inputs": [],
      "name": "strategy",
      "outputs": [
        {
          "internalType": "contract IStrategy",
          "name": "",
          "type": "address"
        }
      ],
      "stateMutability": "view",
      "type": "function"
    },
    {
      "inputs": [],
      "name": "symbol",
      "outputs": [
        {
          "internalType": "string",
          "name": "",
          "type": "string"
        }
      ],
      "stateMutability": "view",
      "type": "function"
    },
    {
      "inputs": [],
      "name": "totalSupply",
      "outputs": [
        {
          "internalType": "uint256",
          "name": "",
          "type": "uint256"
        }
      ],
      "stateMutability": "view",
      "type": "function"
    },
    {
      "inputs": [
        {
          "internalType": "address",
          "name": "to",
          "type": "address"
        },
        {
          "internalType": "uint256",
          "name": "amount",
          "type": "uint256"
        }
      ],
      "name": "transfer",
      "outputs": [
        {
          "internalType": "bool",
          "name": "",
          "type": "bool"
        }
      ],
      "stateMutability": "nonpayable",
      "type": "function"
    },
    {
      "inputs": [
        {
          "internalType": "address",
          "name": "from",
          "type": "address"
        },
        {
          "internalType": "address",
          "name": "to",
          "type": "address"
        },
        {
          "internalType": "uint256",
          "name": "amount",
          "type": "uint256"
        }
      ],
      "name": "transferFrom",
      "outputs": [
        {
          "internalType": "bool",
          "name": "",
          "type": "bool"
        }
      ],
      "stateMutability": "nonpayable",
      "type": "function"
    },
    {
      "inputs": [
        {
          "internalType": "address",
          "name": "newOwner",
          "type": "address"
        }
      ],
      "name": "transferOwnership",
      "outputs": [],
      "stateMutability": "nonpayable",
      "type": "function"
    },
    {
      "inputs": [
        {
          "internalType": "uint256",
          "name": "amountYEth_",
          "type": "uint256"
        }
      ],
      "name": "withdraw",
      "outputs": [],
      "stateMutability": "nonpayable",
      "type": "function"
    },
    {
      "stateMutability": "payable",
      "type": "receive"
    }
  ],
  "transactionHash": "0xb1bbd0cf14cdd7c03ebcfb5b86eabe46921f33416ea6b8de9b8114f7ef2eed94",
  "args": [
    "0xDb033Ff2d322c8997772Bc6BDcda1C6f80568F5d"
  ],
  "numDeployments": 1,
  "solcInputHash": "43f58def3fa3f836eb213b6976682b39",
  "bytecode": "0x60806040523480156200001157600080fd5b506040516200207538038062002075833981016040819052620000349162000131565b604051806040016040528060098152602001681155120815985d5b1d60ba1b815250604051806040016040528060048152602001630f28aa8960e31b815250816003908162000084919062000208565b50600462000093828262000208565b505050620000b0620000aa620000db60201b60201c565b620000df565b6001600655600780546001600160a01b0319166001600160a01b0392909216919091179055620002d4565b3390565b600580546001600160a01b038381166001600160a01b0319831681179093556040519116919082907f8be0079c531659141344cd1fd0a4f28419497f9722a3daafe3b4186f6b6457e090600090a35050565b6000602082840312156200014457600080fd5b81516001600160a01b03811681146200015c57600080fd5b9392505050565b634e487b7160e01b600052604160045260246000fd5b600181811c908216806200018e57607f821691505b602082108103620001af57634e487b7160e01b600052602260045260246000fd5b50919050565b601f8211156200020357600081815260208120601f850160051c81016020861015620001de5750805b601f850160051c820191505b81811015620001ff57828155600101620001ea565b5050505b505050565b81516001600160401b0381111562000224576200022462000163565b6200023c8162000235845462000179565b84620001b5565b602080601f8311600181146200027457600084156200025b5750858301515b600019600386901b1c1916600185901b178555620001ff565b600085815260208120601f198616915b82811015620002a55788860151825594840194600190910190840162000284565b5085821015620002c45787850151600019600388901b60f8161c191681555b5050505050600190811b01905550565b611d9180620002e46000396000f3fe6080604052600436106101635760003560e01c80637d7c2a1c116100c0578063a9059cbb11610074578063dd62ed3e11610059578063dd62ed3e14610474578063e8b5e51f146104c7578063f2fde38b146104dc57600080fd5b8063a9059cbb1461044c578063d0e30db01461046c57600080fd5b806395d89b41116100a557806395d89b41146103ea578063a457c2d7146103ff578063a8c62e761461041f57600080fd5b80637d7c2a1c146103895780638da5cb5b1461039e57600080fd5b8063313ce5671161011757806370a08231116100fc57806370a0823114610311578063715018a6146103545780637a9024bd1461036957600080fd5b8063313ce567146102d557806339509351146102f157600080fd5b806318160ddd1161014857806318160ddd1461027657806323b872dd146102955780632e1a7d4d146102b557600080fd5b806306fdde031461021b578063095ea7b31461024657600080fd5b366102165760075473ffffffffffffffffffffffffffffffffffffffff163314610214576040517f08c379a000000000000000000000000000000000000000000000000000000000815260206004820152602260248201527f574554483a204f6e6c792073747261746567792063616e2073656e642065746860448201527f657200000000000000000000000000000000000000000000000000000000000060648201526084015b60405180910390fd5b005b600080fd5b34801561022757600080fd5b506102306104fc565b60405161023d9190611ad7565b60405180910390f35b34801561025257600080fd5b50610266610261366004611b65565b61058e565b604051901515815260200161023d565b34801561028257600080fd5b506002545b60405190815260200161023d565b3480156102a157600080fd5b506102666102b0366004611b91565b6105a8565b3480156102c157600080fd5b506102146102d0366004611bd2565b6105cc565b3480156102e157600080fd5b506040516012815260200161023d565b3480156102fd57600080fd5b5061026661030c366004611b65565b610916565b34801561031d57600080fd5b5061028761032c366004611beb565b73ffffffffffffffffffffffffffffffffffffffff1660009081526020819052604090205490565b34801561036057600080fd5b50610214610962565b34801561037557600080fd5b50610214610384366004611beb565b610976565b34801561039557600080fd5b50610214610a8b565b3480156103aa57600080fd5b5060055473ffffffffffffffffffffffffffffffffffffffff165b60405173ffffffffffffffffffffffffffffffffffffffff909116815260200161023d565b3480156103f657600080fd5b50610230610c75565b34801561040b57600080fd5b5061026661041a366004611b65565b610c84565b34801561042b57600080fd5b506007546103c59073ffffffffffffffffffffffffffffffffffffffff1681565b34801561045857600080fd5b50610266610467366004611b65565b610d55565b610214610d63565b34801561048057600080fd5b5061028761048f366004611c0f565b73ffffffffffffffffffffffffffffffffffffffff918216600090815260016020908152604080832093909416825291909152205490565b3480156104d357600080fd5b50610214610f25565b3480156104e857600080fd5b506102146104f7366004611beb565b61110f565b60606003805461050b90611c48565b80601f016020809104026020016040519081016040528092919081815260200182805461053790611c48565b80156105845780601f1061055957610100808354040283529160200191610584565b820191906000526020600020905b81548152906001019060200180831161056757829003601f168201915b5050505050905090565b60003361059c8185856111c3565b60019150505b92915050565b6000336105b6858285611377565b6105c185858561144e565b506001949350505050565b6105d46116bd565b6000811161063e576040517f08c379a000000000000000000000000000000000000000000000000000000000815260206004820152601f60248201527f5661756c743a20496e76616c6964207945544820746f20776974686472617700604482015260640161020b565b336000908152602081905260409020548111156106b7576040517f08c379a000000000000000000000000000000000000000000000000000000000815260206004820152601860248201527f5661756c743a20496e73756666696369656e7420794554480000000000000000604482015260640161020b565b60006106c260025490565b600754604080517f87a3dffd0000000000000000000000000000000000000000000000000000000081529051479273ffffffffffffffffffffffffffffffffffffffff16916387a3dffd9160048083019260209291908290030181865afa158015610731573d6000803e3d6000fd5b505050506040513d601f19601f820116820180604052508101906107559190611c9b565b61075f9190611ce3565b6107699084611cf6565b6107739190611d0d565b9050478111156108105760006107894783611d48565b6007546040517f2e1a7d4d0000000000000000000000000000000000000000000000000000000081526004810183905291925073ffffffffffffffffffffffffffffffffffffffff1690632e1a7d4d90602401600060405180830381600087803b1580156107f657600080fd5b505af115801561080a573d6000803e3d6000fd5b50505050505b604051600090339083908381818185875af1925050503d8060008114610852576040519150601f19603f3d011682016040523d82523d6000602084013e610857565b606091505b50509050806108c2576040517f08c379a000000000000000000000000000000000000000000000000000000000815260206004820152601760248201527f5661756c743a205472616e73666572206661696c65642e000000000000000000604482015260640161020b565b6108cc3384611730565b604080518381526020810185905233917f92ccf450a286a957af52509bc1c9939d1a6a481783e142e41e2499f0bb66ebc6910160405180910390a250506109136001600655565b50565b33600081815260016020908152604080832073ffffffffffffffffffffffffffffffffffffffff8716845290915281205490919061059c908290869061095d908790611ce3565b6111c3565b61096a6118ec565b610974600061196d565b565b61097e6118ec565b600760009054906101000a900473ffffffffffffffffffffffffffffffffffffffff1673ffffffffffffffffffffffffffffffffffffffff1663853828b66040518163ffffffff1660e01b8152600401600060405180830381600087803b1580156109e857600080fd5b505af11580156109fc573d6000803e3d6000fd5b5050600780547fffffffffffffffffffffffff0000000000000000000000000000000000000000811673ffffffffffffffffffffffffffffffffffffffff8681169182179093556040805193909216808452602084019190915293503392507fdca0eba38dd8be09c174259128c06a9fa9d70ac10115419b69c6af1e5744188391015b60405180910390a25050565b610a936118ec565b600754604080517f87a3dffd000000000000000000000000000000000000000000000000000000008152905160009273ffffffffffffffffffffffffffffffffffffffff16916387a3dffd9160048083019260209291908290030181865afa158015610b03573d6000803e3d6000fd5b505050506040513d601f19601f82011682018060405250810190610b279190611c9b565b610b319047611ce3565b9050610b3e600a82611d0d565b4710610ba6576040517f08c379a000000000000000000000000000000000000000000000000000000000815260206004820152601c60248201527f5661756c743a204e6f20657468657220746f20726562616c616e636500000000604482015260640161020b565b600047610bb4600a84611d0d565b610bbe9190611d48565b6007546040517f2e1a7d4d0000000000000000000000000000000000000000000000000000000081526004810183905291925073ffffffffffffffffffffffffffffffffffffffff1690632e1a7d4d90602401600060405180830381600087803b158015610c2b57600080fd5b505af1158015610c3f573d6000803e3d6000fd5b50506040518381523392507f1427d1942829759938581ce754fd0f7f116bfb7a4b77f80f0cb32cd62c2138c79150602001610a7f565b60606004805461050b90611c48565b33600081815260016020908152604080832073ffffffffffffffffffffffffffffffffffffffff8716845290915281205490919083811015610d48576040517f08c379a000000000000000000000000000000000000000000000000000000000815260206004820152602560248201527f45524332303a2064656372656173656420616c6c6f77616e63652062656c6f7760448201527f207a65726f000000000000000000000000000000000000000000000000000000606482015260840161020b565b6105c182868684036111c3565b60003361059c81858561144e565b60003411610df3576040517f08c379a000000000000000000000000000000000000000000000000000000000815260206004820152602860248201527f5661756c743a20596f75206d7573742070726f7669646520657468657220746f60448201527f206465706f736974000000000000000000000000000000000000000000000000606482015260840161020b565b6000610dfe60025490565b600003610e15575068056bc75e2d63100000610edd565b3447600760009054906101000a900473ffffffffffffffffffffffffffffffffffffffff1673ffffffffffffffffffffffffffffffffffffffff166387a3dffd6040518163ffffffff1660e01b8152600401602060405180830381865afa158015610e84573d6000803e3d6000fd5b505050506040513d601f19601f82011682018060405250810190610ea89190611c9b565b610eb29190611ce3565b610ebc9190611d48565b34610ec660025490565b610ed09190611cf6565b610eda9190611d0d565b90505b610ee733826119e4565b604080513481526020810183905233917f73a19dd210f1a7f902193214c0ee91dd35ee5b4d920cba8d519eca65a7b488ca910160405180910390a250565b610f2d6118ec565b600754604080517f87a3dffd000000000000000000000000000000000000000000000000000000008152905160009273ffffffffffffffffffffffffffffffffffffffff16916387a3dffd9160048083019260209291908290030181865afa158015610f9d573d6000803e3d6000fd5b505050506040513d601f19601f82011682018060405250810190610fc19190611c9b565b610fcb9047611ce3565b905080610fd947600a611cf6565b11611040576040517f08c379a000000000000000000000000000000000000000000000000000000000815260206004820152601960248201527f5661756c743a204e6f20657468657220746f20696e7665737400000000000000604482015260640161020b565b600061104d600a83611d0d565b6110579047611d48565b9050600760009054906101000a900473ffffffffffffffffffffffffffffffffffffffff1673ffffffffffffffffffffffffffffffffffffffff16631249c58b826040518263ffffffff1660e01b81526004016000604051808303818588803b1580156110c357600080fd5b505af11580156110d7573d6000803e3d6000fd5b50506040518481523393507fc3f75dfc78f6efac88ad5abb5e606276b903647d97b2a62a1ef89840a658bbc392506020019050610a7f565b6111176118ec565b73ffffffffffffffffffffffffffffffffffffffff81166111ba576040517f08c379a000000000000000000000000000000000000000000000000000000000815260206004820152602660248201527f4f776e61626c653a206e6577206f776e657220697320746865207a65726f206160448201527f6464726573730000000000000000000000000000000000000000000000000000606482015260840161020b565b6109138161196d565b73ffffffffffffffffffffffffffffffffffffffff8316611265576040517f08c379a0000000000000000000000000000000000000000000000000000000008152602060048201526024808201527f45524332303a20617070726f76652066726f6d20746865207a65726f2061646460448201527f7265737300000000000000000000000000000000000000000000000000000000606482015260840161020b565b73ffffffffffffffffffffffffffffffffffffffff8216611308576040517f08c379a000000000000000000000000000000000000000000000000000000000815260206004820152602260248201527f45524332303a20617070726f766520746f20746865207a65726f20616464726560448201527f7373000000000000000000000000000000000000000000000000000000000000606482015260840161020b565b73ffffffffffffffffffffffffffffffffffffffff83811660008181526001602090815260408083209487168084529482529182902085905590518481527f8c5be1e5ebec7d5bd14f71427d1e84f3dd0314c0f7b2291e5b200ac8c7c3b92591015b60405180910390a3505050565b73ffffffffffffffffffffffffffffffffffffffff8381166000908152600160209081526040808320938616835292905220547fffffffffffffffffffffffffffffffffffffffffffffffffffffffffffffffff8114611448578181101561143b576040517f08c379a000000000000000000000000000000000000000000000000000000000815260206004820152601d60248201527f45524332303a20696e73756666696369656e7420616c6c6f77616e6365000000604482015260640161020b565b61144884848484036111c3565b50505050565b73ffffffffffffffffffffffffffffffffffffffff83166114f1576040517f08c379a000000000000000000000000000000000000000000000000000000000815260206004820152602560248201527f45524332303a207472616e736665722066726f6d20746865207a65726f20616460448201527f6472657373000000000000000000000000000000000000000000000000000000606482015260840161020b565b73ffffffffffffffffffffffffffffffffffffffff8216611594576040517f08c379a000000000000000000000000000000000000000000000000000000000815260206004820152602360248201527f45524332303a207472616e7366657220746f20746865207a65726f206164647260448201527f6573730000000000000000000000000000000000000000000000000000000000606482015260840161020b565b73ffffffffffffffffffffffffffffffffffffffff83166000908152602081905260409020548181101561164a576040517f08c379a000000000000000000000000000000000000000000000000000000000815260206004820152602660248201527f45524332303a207472616e7366657220616d6f756e742065786365656473206260448201527f616c616e63650000000000000000000000000000000000000000000000000000606482015260840161020b565b73ffffffffffffffffffffffffffffffffffffffff848116600081815260208181526040808320878703905593871680835291849020805487019055925185815290927fddf252ad1be2c89b69c2b068fc378daa952ba7f163c4a11628f55a4df523b3ef910160405180910390a3611448565b600260065403611729576040517f08c379a000000000000000000000000000000000000000000000000000000000815260206004820152601f60248201527f5265656e7472616e637947756172643a207265656e7472616e742063616c6c00604482015260640161020b565b6002600655565b73ffffffffffffffffffffffffffffffffffffffff82166117d3576040517f08c379a000000000000000000000000000000000000000000000000000000000815260206004820152602160248201527f45524332303a206275726e2066726f6d20746865207a65726f2061646472657360448201527f7300000000000000000000000000000000000000000000000000000000000000606482015260840161020b565b73ffffffffffffffffffffffffffffffffffffffff821660009081526020819052604090205481811015611889576040517f08c379a000000000000000000000000000000000000000000000000000000000815260206004820152602260248201527f45524332303a206275726e20616d6f756e7420657863656564732062616c616e60448201527f6365000000000000000000000000000000000000000000000000000000000000606482015260840161020b565b73ffffffffffffffffffffffffffffffffffffffff83166000818152602081815260408083208686039055600280548790039055518581529192917fddf252ad1be2c89b69c2b068fc378daa952ba7f163c4a11628f55a4df523b3ef910161136a565b60055473ffffffffffffffffffffffffffffffffffffffff163314610974576040517f08c379a000000000000000000000000000000000000000000000000000000000815260206004820181905260248201527f4f776e61626c653a2063616c6c6572206973206e6f7420746865206f776e6572604482015260640161020b565b6005805473ffffffffffffffffffffffffffffffffffffffff8381167fffffffffffffffffffffffff0000000000000000000000000000000000000000831681179093556040519116919082907f8be0079c531659141344cd1fd0a4f28419497f9722a3daafe3b4186f6b6457e090600090a35050565b73ffffffffffffffffffffffffffffffffffffffff8216611a61576040517f08c379a000000000000000000000000000000000000000000000000000000000815260206004820152601f60248201527f45524332303a206d696e7420746f20746865207a65726f206164647265737300604482015260640161020b565b8060026000828254611a739190611ce3565b909155505073ffffffffffffffffffffffffffffffffffffffff8216600081815260208181526040808320805486019055518481527fddf252ad1be2c89b69c2b068fc378daa952ba7f163c4a11628f55a4df523b3ef910160405180910390a35050565b600060208083528351808285015260005b81811015611b0457858101830151858201604001528201611ae8565b5060006040828601015260407fffffffffffffffffffffffffffffffffffffffffffffffffffffffffffffffe0601f8301168501019250505092915050565b73ffffffffffffffffffffffffffffffffffffffff8116811461091357600080fd5b60008060408385031215611b7857600080fd5b8235611b8381611b43565b946020939093013593505050565b600080600060608486031215611ba657600080fd5b8335611bb181611b43565b92506020840135611bc181611b43565b929592945050506040919091013590565b600060208284031215611be457600080fd5b5035919050565b600060208284031215611bfd57600080fd5b8135611c0881611b43565b9392505050565b60008060408385031215611c2257600080fd5b8235611c2d81611b43565b91506020830135611c3d81611b43565b809150509250929050565b600181811c90821680611c5c57607f821691505b602082108103611c95577f4e487b7100000000000000000000000000000000000000000000000000000000600052602260045260246000fd5b50919050565b600060208284031215611cad57600080fd5b5051919050565b7f4e487b7100000000000000000000000000000000000000000000000000000000600052601160045260246000fd5b808201808211156105a2576105a2611cb4565b80820281158282048414176105a2576105a2611cb4565b600082611d43577f4e487b7100000000000000000000000000000000000000000000000000000000600052601260045260246000fd5b500490565b818103818111156105a2576105a2611cb456fea2646970667358221220e07b708cf1f4e636aa754b2965aaa4e64184cbde10b18719e1f2d1cacb9816a364736f6c63430008130033",
  "devdoc": {
    "author": "Huang.",
    "details": "Yield farming vault which accrues interests from Idle protocl via Strategy.",
    "events": {
      "Approval(address,address,uint256)": {
        "details": "Emitted when the allowance of a `spender` for an `owner` is set by a call to {approve}. `value` is the new allowance."
      },
      "Transfer(address,address,uint256)": {
        "details": "Emitted when `value` tokens are moved from one account (`from`) to another (`to`). Note that `value` may be zero."
      }
    },
    "kind": "dev",
    "methods": {
      "allowance(address,address)": {
        "details": "See {IERC20-allowance}."
      },
      "approve(address,uint256)": {
        "details": "See {IERC20-approve}. NOTE: If `amount` is the maximum `uint256`, the allowance is not updated on `transferFrom`. This is semantically equivalent to an infinite approval. Requirements: - `spender` cannot be the zero address."
      },
      "balanceOf(address)": {
        "details": "See {IERC20-balanceOf}."
      },
      "changeStrategy(address)": {
        "details": "Withdraw all ether locked on the strategy and set new strategy.",
        "params": {
          "strategy_": "New strategy to be set."
        }
      },
      "decimals()": {
        "details": "Returns the number of decimals used to get its user representation. For example, if `decimals` equals `2`, a balance of `505` tokens should be displayed to a user as `5.05` (`505 / 10 ** 2`). Tokens usually opt for a value of 18, imitating the relationship between Ether and Wei. This is the default value returned by this function, unless it's overridden. NOTE: This information is only used for _display_ purposes: it in no way affects any of the arithmetic of the contract, including {IERC20-balanceOf} and {IERC20-transfer}."
      },
      "decreaseAllowance(address,uint256)": {
        "details": "Atomically decreases the allowance granted to `spender` by the caller. This is an alternative to {approve} that can be used as a mitigation for problems described in {IERC20-approve}. Emits an {Approval} event indicating the updated allowance. Requirements: - `spender` cannot be the zero address. - `spender` must have allowance for the caller of at least `subtractedValue`."
      },
      "deposit()": {
        "details": "Receive ether and figure out how much yETH needed according to the yETH total supply and ether funds."
      },
      "increaseAllowance(address,uint256)": {
        "details": "Atomically increases the allowance granted to `spender` by the caller. This is an alternative to {approve} that can be used as a mitigation for problems described in {IERC20-approve}. Emits an {Approval} event indicating the updated allowance. Requirements: - `spender` cannot be the zero address."
      },
      "invest()": {
        "details": "Owner can invest 90% of total balance to the strategy."
      },
      "name()": {
        "details": "Returns the name of the token."
      },
      "owner()": {
        "details": "Returns the address of the current owner."
      },
      "rebalance()": {
        "details": "Owner can keep 10% of total balance inside the vault."
      },
      "renounceOwnership()": {
        "details": "Leaves the contract without owner. It will not be possible to call `onlyOwner` functions. Can only be called by the current owner. NOTE: Renouncing ownership will leave the contract without an owner, thereby disabling any functionality that is only available to the owner."
      },
      "symbol()": {
        "details": "Returns the symbol of the token, usually a shorter version of the name."
      },
      "totalSupply()": {
        "details": "See {IERC20-totalSupply}."
      },
      "transfer(address,uint256)": {
        "details": "See {IERC20-transfer}. Requirements: - `to` cannot be the zero address. - the caller must have a balance of at least `amount`."
      },
      "transferFrom(address,address,uint256)": {
        "details": "See {IERC20-transferFrom}. Emits an {Approval} event indicating the updated allowance. This is not required by the EIP. See the note at the beginning of {ERC20}. NOTE: Does not update the allowance if the current allowance is the maximum `uint256`. Requirements: - `from` and `to` cannot be the zero address. - `from` must have a balance of at least `amount`. - the caller must have allowance for ``from``'s tokens of at least `amount`."
      },
      "transferOwnership(address)": {
        "details": "Transfers ownership of the contract to a new account (`newOwner`). Can only be called by the current owner."
      },
      "withdraw(uint256)": {
        "details": "Calculate amount to be returned with current balance and expected withdraw and total supply.",
        "params": {
          "amountYEth_": "Amount of yETH to be burned."
        }
      }
    },
    "title": "Vault.",
    "version": 1
  },
  "userdoc": {
    "kind": "user",
    "methods": {
      "changeStrategy(address)": {
        "notice": "Changes more efficient strategy for more interests."
      },
      "deposit()": {
        "notice": "Deposit ether and receives yETH according to the rate set by the first depositor. If nobody deposited, then it will mint 100 yETH."
      },
      "invest()": {
        "notice": "Invest 90% of ethers inside the contract to the strategy."
      },
      "rebalance()": {
        "notice": "Rebalance to keep 10% of total balance inside the vault contract."
      },
      "withdraw(uint256)": {
        "notice": "Depositors burn yETH and receives their liquidity and interests according to the shares."
      }
    },
    "notice": "Any users can deposit their ether here and earn interests.",
    "version": 1
  },
  "storageLayout": {
    "storage": [
      {
        "astId": 193,
        "contract": "contracts/Vault.sol:Vault",
        "label": "_balances",
        "offset": 0,
        "slot": "0",
        "type": "t_mapping(t_address,t_uint256)"
      },
      {
        "astId": 199,
        "contract": "contracts/Vault.sol:Vault",
        "label": "_allowances",
        "offset": 0,
        "slot": "1",
        "type": "t_mapping(t_address,t_mapping(t_address,t_uint256))"
      },
      {
        "astId": 201,
        "contract": "contracts/Vault.sol:Vault",
        "label": "_totalSupply",
        "offset": 0,
        "slot": "2",
        "type": "t_uint256"
      },
      {
        "astId": 203,
        "contract": "contracts/Vault.sol:Vault",
        "label": "_name",
        "offset": 0,
        "slot": "3",
        "type": "t_string_storage"
      },
      {
        "astId": 205,
        "contract": "contracts/Vault.sol:Vault",
        "label": "_symbol",
        "offset": 0,
        "slot": "4",
        "type": "t_string_storage"
      },
      {
        "astId": 7,
        "contract": "contracts/Vault.sol:Vault",
        "label": "_owner",
        "offset": 0,
        "slot": "5",
        "type": "t_address"
      },
      {
        "astId": 123,
        "contract": "contracts/Vault.sol:Vault",
        "label": "_status",
        "offset": 0,
        "slot": "6",
        "type": "t_uint256"
      },
      {
        "astId": 2026,
        "contract": "contracts/Vault.sol:Vault",
        "label": "strategy",
        "offset": 0,
        "slot": "7",
        "type": "t_contract(IStrategy)2531"
      }
    ],
    "types": {
      "t_address": {
        "encoding": "inplace",
        "label": "address",
        "numberOfBytes": "20"
      },
      "t_contract(IStrategy)2531": {
        "encoding": "inplace",
        "label": "contract IStrategy",
        "numberOfBytes": "20"
      },
      "t_mapping(t_address,t_mapping(t_address,t_uint256))": {
        "encoding": "mapping",
        "key": "t_address",
        "label": "mapping(address => mapping(address => uint256))",
        "numberOfBytes": "32",
        "value": "t_mapping(t_address,t_uint256)"
      },
      "t_mapping(t_address,t_uint256)": {
        "encoding": "mapping",
        "key": "t_address",
        "label": "mapping(address => uint256)",
        "numberOfBytes": "32",
        "value": "t_uint256"
      },
      "t_string_storage": {
        "encoding": "bytes",
        "label": "string",
        "numberOfBytes": "32"
      },
      "t_uint256": {
        "encoding": "inplace",
        "label": "uint256",
        "numberOfBytes": "32"
      }
    }
  }
}